S01200006C65645F6C6F6F6B75702E73726563E4
S113000045C0000060C000005EC000005CC000008D
S11300105AC0000058C0000056C0000054C0000080
S113002052C0000050C000004EC000004CC0000090
S11300304AC0000048C0000046C0000044C00000A0
S113004042C0000040C000003EC000003CC00000B0
S11300503AC0000038C0000036C0000034C00000C0
S113006032C0000030C000002EC000002CC00000D0
S11300702AC0000028C0000026C0000024C00000E0
S113008022C0000020C000001EC0000011241FBEBA
S1130090CFEFD0E1DEBFCDBF11E0A0E0B1E0E4EAF4
S11300A0F4E000E00BBF02C007900D92A431B10749
S11300B0D9F721E0A4E1B1E001C01D92A831B20753
S11300C0E1F78ED0EDC19CCF181619066CF420E030
S11300D030E0EFECF7E03197F1F700C000002F5F5C
S11300E03F4F82179307A9F70895CF92DF92EF92BB
S11300F0FF920F931F93CF93DF937C018B016A01CF
S1130100EB01CC0FDD1FCE01AAD0CA94CD2821F07B
S11301101016110634F154C0101611060CF050C01C
S1130120FE013297BF016E0D7F1DE7012297DC01AE
S113013020E030E02115310539F4FB014081518183
S1130140FC015183408305C04881598111965C9319
S11301504E932F5F3F4F229612960217130751F7C3
S113016031C09E012E5F3F4FB701620F731FDC0148
S1130170AC0FBD1FF701EC0FFD1F98012F5F3F4F20
S11301800217130739F4EB014881598111965C93E6
S11301904E9305C04281538111965C934E93215036
S11301A03109129732972130310551F70BC04D9127
S11301B05D91419351932F5F3F4F20173107BCF35B
S11301C0E6D005C0DC01F70120E030E0F0CFDF919C
S11301D0CF911F910F91FF90EF90DF90CF900895F2
S11301E0CF93DF93CDB7DEB72E970FB6F894DEBF6B
S11301F00FBECDBF8FEF8ABB87BB84BB81BB82B9E7
S113020080936100809364008EE0E6E0F1E0DE011B
S1130210119601900D928A95E1F70F2EF2E6EF2EDA
S1130220F12CF02D05E610E041E050E067E070E0CD
S1130230CE0101965ADF89818BBB8B8188BB8D816E
S113024085BB8F8182BB898583B98B85F7018083C8
S11302508D85F801808388EC90E036DFE5CF0F933D
S11302601F93CF93DF938230910510F482E090E0E6
S1130270E0911601F091170120E030E0A0E0B0E039
S1130280309719F140815181028113814817590730
S1130290C8F08417950769F4109731F012960C93FF
S11302A0129713961C9327C00093160110931701FD
S11302B022C02115310519F04217530718F49A0189
S11302C0BD01EF01DF01F801DBCF21153105F9F0A4
S11302D0281B390B2430310580F48A819B816115F8
S11302E0710521F0FB019383828304C0909317016D
S11302F080931601FE01329644C0FE01E20FF31F03
S11303008193919322503109398328833AC02091F3
S1130310140130911501232B41F4209102013091F5
S113032003013093150120931401209100013091B1
S113033001012115310541F42DB73EB74091040167
S113034050910501241B350BE0911401F091150126
S1130350E217F307A0F42E1B3F0B2817390778F098
S1130360AC014E5F5F4F2417350748F04E0F5F1FF7
S113037050931501409314018193919302C0E0E0DE
S1130380F0E0CF01DF91CF911F910F910895CF93AA
S1130390DF93009709F481C0FC0132971382128223
S11303A0A0911601B0911701109781F42081318139
S11303B0820F931F209114013091150128173907DA
S11303C051F5F0931501E093140167C0ED0120E0AD
S11303D030E0CE17DF0740F44A815B819E0141156E
S11303E05105F1F0EA01F5CFD383C28340815181F5
S11303F0840F951FC817D90759F488819981840FF0
S1130400951F0296918380838A819B819383828343
S11304102115310529F4F0931701E09316013DC02D
S1130420E901FB83EA8349915991C40FD51FEC1765
S1130430FD0761F480819181840F951F0296E90183
S113044099838883828193819B838A83E0E0F0E0AF
S113045012968D919C911397009719F0FD01DC0180
S1130460F7CF8D919C9111979D012E5F3F4F820F85
S1130470931F20911401309115012817390769F44D
S1130480309729F4109217011092160102C01382BA
S11304901282B0931501A0931401DF91CF910895B6
S10704A0F894FFCFFA
S11304A4000018012000810042002400180000000C
S10704B40000000040
S9030000FC
